:020000040000FA
:10000000200B0010450200004D0200004F020000CE
:1000100051020000530200005502000000000000E1
:100020000000000000000000000000004901000086
:100030005902000000000000D10100002102000070
:100040005F0200005F0200005F0200005F0200002C
:100050005F0200005F0200005F0200005F0200001C
:100060005F0200005F0200005F0200005F0200000C
:100070005F0200005F0200005F0200005F020000FC
:100080005F0200005F0200005F0200005F020000EC
:100090005F0200005F0200005F0200005F020000DC
:1000A0005F0200005F0200005F0200005F020000CC
:1000B0005F0200005F0200005F0200005F020000BC
:1000C0005F0200005F0200005F020000DFF80CD05A
:1000D00000F0E0F80048004799060000200B0010EF
:1000E00080F309887047EFF309807047684680F312
:1000F000098804480078C00714BF0220032080F359
:1001000014887047E4140000DFF818C0EFF305838B
:100110001B0618BF6047EFF31483DB0708BF604777
:1001200000DF7047950B0000DFF818C0EFF3058380
:100130001B0618BF6047EFF31483DB0708BF604757
:1001400000DF7047ED0C0000EFF30980816911F8C2
:10015000021C39BB90E80F10E047EFF3098C194BF4
:1001600093E80600914218D059B10CB44FF0010346
:1001700081F826302CE9F00FC1F82CC000F098FF70
:100180000CBC1A60D2F82CC0BCE8F00F92F82630F4
:100190008CF309881BB192F82500CCF800006FF0B1
:1001A000020E704710B5084A1268914209D8074CF0
:1001B00054F8214090E80F10A047EFF3098C8CE829
:1001C0000F0010BD10000010B8020000B8020000BF
:1001D00000F05EFE114B93E8060091421BD00CB478
:1001E0004FF0000381F82630EFF3098C2CE9F00F73
:1001F000C1F82CC000F05CFF0CBC1A60D2F82CC017
:10020000BCE8F00F8CF3098892F826301BB192F805
:100210002530CCF800306FF0020E7047100000104F
:1002200001F018F8D6E7000000F064F801F012F8C9
:10023000D0E7000000BFFEE7704700BFFEE7704751
:10024000704770470648804706480047FEE7FEE7CC
:10025000FEE7FEE7FEE7FEE7FEE7FEE7FEE7FEE776
:1002600043020000CD00000030B50B4601460020DF
:100270002022012409E021FA02F59D4205D303FA68
:1002800002F5491B04FA02F52844151EA2F10102E9
:10029000F1DC30BD064C074D06E0E06840F001039C
:1002A00094E8070098471034AC42F6D3FFF712FFEA
:1002B0000015000020150000000000000FB41CB560
:1002C0000A46521ECDE9000207A9054B6A46069868
:1002D00000F06CFA009A002111701CBC5DF814FB50
:1002E000F70A000002E008C8121F08C1002AFAD16C
:1002F000704770477047032100F05ABCFFFFFFFFB3
:10030000002100E0491C8142FCDB7047002107E02E
:10031000002200E0521C41F288339A42FADB491C69
:100320008142F5DB704700B54FF08050E14908602D
:100330004FF4FA70FFF7E4FF4FF08050DD49983931
:10034000C1F89C0000BD00B503464FF47000D949C8
:100350009839C8631807000A8863FFF7E4FF00BDF7
:1003600010B504464FF0C060D2499839C8672011D3
:10037000FFF7E9FF04F00F00FFF7E5FF4FF4FA6025
:10038000FFF7BEFF10BD10B504464FF00070C9491D
:10039000983988674000C8672011FFF7D4FF04F040
:1003A0000F00FFF7D0FFC820FFF7AAFF10BD30B540
:1003B00004460D460CB9002100E040212944C9B291
:1003C00041F08000FFF7CCFF30BD10B5044603E0DC
:1003D00014F8010BFFF7D7FF20780028F8D110BDE3
:1003E00000B5B548C06820F47F40B349C8600846EE
:1003F000C06920F47010C8610846406A20F040705F
:100400004862AC489838006A40F47000A9499839AD
:1004100008620846006E40F0C0600866A7480068A1
:1004200040F08050C1F880004FF08060C8674FF006
:100430003200FFF76BFF0320FFF785FF0520FFF772
:1004400065FF0320FFF77FFF0520FFF75FFF032015
:10045000FFF779FF0120FFF759FF0220FFF773FF35
:100460002820FFF77DFF0C20FFF77AFF0620FFF71B
:1004700077FF0120FFF774FF0A20FFF747FF00BD59
:100480008D48006920F03C008B4908618B4880381A
:10049000006C40F0060089498039086406208865B0
:1004A0007047022085498039C8657047022083491A
:1004B000803988657047042080498039C865704755
:1004C00004207E498039886570477D48006840F483
:1004D00080507C49C1F8C4007748406820F47030EF
:1004E000754948600846406840F4A0304860764846
:1004F00076490860704701467448006820F0FF00A4
:10050000724A10601046006801228A4042F08072F0
:1005100010436E4A106000BF6C48406810F0004FF6
:10052000FAD06A484068C0F30B1070470146642057
:10053000484340F6FF72B0FBF2F0C0B2704700BF14
:100540000020FFF7D8FF624908800120FFF7D3FFA2
:10055000604908806048DFF884C100DF0A20DFF8C6
:1005600080C100DFECE700BF4FF6FF715A48DFF8AB
:1005700074C100DF56480088FFF7D8FF054655488C
:100580000088FFF7D3FF0446242D02D9FFF789FF27
:1005900001E0FFF78BFF462D01D23C2C02D3FFF781
:1005A0008AFFE1E7FFF78CFFDEE786B000BF48482F
:1005B0000088FFF7BBFF044646480088FFF7B6FFF8
:1005C0000546242C01D848A604E0462C01D248A6B2
:1005D00000E049A63C2D01D245A700E046A72346EE
:1005E00047A2112101A80096FFF768FE00210846E6
:1005F000FFF7DDFE01A8FFF7E8FE2B4644A211211C
:1006000001A80097FFF75AFE00210120FFF7CFFE57
:1006100001A8FFF7DAFE1420DFF8C4C000DFC6E748
:10062000FFF72EFFFFF751FFFFF7DAFE00212A4800
:10063000DFF8ECC000DF00210846FFF7B8FE39A064
:10064000FFF7C3FE00210120FFF7B1FE3AA0FFF73C
:10065000BCFEC820DFF888C000DF0120FFF780FE65
:1006600000231A460321AFF22910DFF8E0C000DFB3
:1006700000231A460321AFF21110DFF8D0C000DFCB
:1006800000231A460221AFF2DD00DFF8C0C000DF10
:100690000020DFF8BCC000DFFFF7D3FDFFF726FD29
:1006A00000221146AFF28700DFF8A8C000DF00BFCC
:1006B000FEE7000098C0092000C0024080C0092069
:1006C000C4C00F4000C00F400004200000400340A1
:1006D000040000100600001008000010391000008F
:1006E000F702000071100000534146450000000071
:1006F0004E4F524D414C000044414E474552000080
:100700004D51323A253375252520252D36730000AD
:100710004D3133353A253375252520252D36730087
:10072000F90F000020204F542041495220475541E5
:1007300052442020000000002053797374656D201E
:100740004C6F6164696E672000000000D5120000E4
:1007500069130000FD100000002001E001C1121F1C
:10076000002AFBD1704710B5002A06DA22F00042B9
:10077000D21D22F00703102203E0D21C22F0030353
:100780000C2213B19C188C4201D9012010BD0244E7
:1007900001448360C0E90021C91AD018884202D8F8
:1007A00010600246F9E70020106010BD2DE9FF4FF0
:1007B0008BB088460546002667E125287AD10024BB
:1007C0006D1CB649A146A24601222B78203B02FAB5
:1007D00003F0084202D004436D1CF6E728782A286B
:1007E00010D06FF02F022878A0F13001092915D818
:1007F00009EB890102EB410144F0020400EB01091D
:100800006D1CF0E758F8049BB9F1000F03DA44F4CB
:100810000054C9F1000944F002046D1C28782E2808
:1008200017D115F8010F44F004042A280ED06FF0F8
:100830002F022878A0F1300109290AD80AEB8A0191
:1008400002EB410100EB010A6D1CF2E758F804AB22
:100850006D1C28786C280FD006DC4C2817D068282F
:100860000DD06A2814D104E0742810D07A280FD152
:100870000DE044F400140AE044F4801401E044F470
:1008800040146978814202D16D1C04F580146D1CFE
:100890002878692866D007DC002876D0632828D01D
:1008A000642807D15EE005E06E2808D073282AD0BE
:1008B00075287AD0DDE90D129047761CE4E0C4F388
:1008C0000250022809D003280DD0D8F800100428BF
:1008D0000DD00E6008F10408D6E0D8F80010F21729
:1008E000C1E90062F6E7D8F800100E80F2E70E705A
:1008F000F0E718F8041B8DF8001000208DF80100B7
:10090000EB46012003E058F804BB4FF0FF306107CD
:100910004FF0000701D40AE07F1C57450DDA8742EB
:10092000FADB1BF807100029F6D106E07F1C87428E
:10093000FCDB1BF807100029F8D1DDE90D23A9EB3A
:1009400007008146214600F0BEF83044C61904E095
:10095000DDE90D121BF8010B90477F1EF8D22146EE
:1009600048468CE058F8040BC4F302514FF00A0BD0
:10097000032900D100B2042900D140B2002806DAD0
:10098000C0F100004FF02D0104E082E00DE02105F0
:1009900004D52B218DF82410012103E0E10710D0AC
:1009A0002021F7E708AF089114E058F8040BC4F3CE
:1009B00002514FF00A0B032900D180B2042900D163
:1009C000C0B20021EEE75946FFF74EFC01F13001BD
:1009D00007F8011D0028F6D1ADEB070000F1200B50
:1009E000600702D524F4803401E04FF0010ADA45B3
:1009F00002DDAAEB0B0000E00020824600EB0B01B9
:100A000008980144A9EB01000A90E00306D4DDE94F
:100A10000D2321460A9800F056F80644002008E00D
:100A200009A911F80900DDE90D129047761C09F1BA
:100A30000100089981468842F2DBE0030CD5DDE92C
:100A40000D2321460A9800F03EF8064404E0DDE953
:100A50000D1230209047761CBAF10001AAF1010A6C
:100A6000F5DC05E0DDE90D1217F8010B9047761C67
:100A7000BBF10001ABF1010BF4DC0A982146DDE982
:100A80000D2300F00DF806446D1C287800287FF433
:100A900094AE0FB03046BDE8F08F00000928010089
:100AA0002DE9F041044600251E461746880405D46A
:100AB00006E039462020B04705F10105641EF8D54F
:100AC0002846BDE8F0812DE9F041044600251E4688
:100AD0009046C80301D5302700E02027880405D5BB
:100AE00006E041463846B04705F10105641EF8D5D9
:100AF0002846BDE8F0814A68002A06D00A68531CDF
:100B00000B6010704868401E4860704708480068D5
:100B1000C0010BD507480068C00707D005488038DA
:100B20000068002802DA04490120087070470000BC
:100B3000FCED00E0800E00E01C0000104FF0604271
:100B4000D36F002BFCD0436BD367D36F002BFCD04B
:100B5000C07840EA0120A2F87C0070474FF0604165
:100B6000CA6F002AFCD081F87C00704707480168F2
:100B70004FF0E020416100218161072101610448BB
:100B8000016841F07F41016040177047E0140000A8
:100B900020ED00E050E8001F31B10B6840E8003262
:100BA000002AF7D108467047BFF32F8FFAE70000FD
:100BB00070B50D46002812D04FF6FF71084C8842E0
:100BC00004D222680146104600F0A0F92068457062
:100BD000044800F09BF8BDE8704000F07BBA70BD9F
:100BE00010000010F008001070B51A4DE8680028D9
:100BF0002ED0A88A401EA882002623E0A06838B123
:100C000061684160606810B1A16881606660A6603B
:100C100010482146183800F09DF9A08AA882607813
:100C2000042804D10C49E08A09880844A0820120E4
:100C3000607084F82500E068E860E06808B105614C
:100C4000E6602661A88A002802D1EC68002CD5D184
:100C500070BD0000080900101800001070B50400F5
:100C60000FD00D4DA17801262868827891420CD9C9
:100C700000F08CF9286846702046BDE8704000F00E
:100C800029BA064800F042F8F7E766702146BDE849
:100C90007040024800F05EB910000010F00800102B
:100CA00010B50446008B084320836278618B062AC6
:100CB00016D0052A17D1084215D001EA0002628336
:100CC00088432083204600F06BF9012060700220E9
:100CD00084F825002146BDE81040034800F03AB9E9
:100CE00031EA0002ECD010BDF0080010814202D3BE
:100CF00042688A4201D80120704750E8002F0A60FC
:100D000040E80012002AF8D10020704701464068F0
:100D100042684A600B780022022B05D0012B03D0D9
:100D2000032B01D04260704743680BB19960426069
:100D30008260704770B5044600201546207001227D
:100D40006270A17084F824106060A060E06020618F
:100D50002062A082E0822083608384F8250084F8EA
:100D60002600208D18B90548FFF714FF2063294697
:100D70002046BDE8704000F003B80000C801001034
:100D800010B5028D920803D10F4A1288C2F38D026A
:100D9000036B03EB8202530700D5121F403A4FF05A
:100DA0008073C2E90E1300234FEA030442F8234084
:100DB0005B1C0E2BFAD3C3691362C2624163006BE2
:100DC0000249016010BD0000D8140000A52E5AE2AF
:100DD0002DE9F0410F4604464168002004F10C065D
:100DE00021B1617802291AD0A189A9B3A189E28928
:100DF000914246D2218904EB81010F61D6E85F1F41
:100E0000491CC6E8521F002AF8D12189491C89B221
:100E10002181E289914200D12081BDE8F08107461D
:100E200060702046FFF772FF80F825702189054623
:100E300004EB8101C0690861D6E85F0F401CC6E879
:100E4000510F0029F8D12089401C80B22081E1890E
:100E500088420BD1278109E0FFE72046FFF756FFC4
:100E60000546C0690421076085F8251001206870D7
:100E7000284600F095F82946BDE8F041034800F007
:100E800069B8BDE8F0410320FFF7D7B9F0080010BA
:100E900070B51B48012102685170006800F076F8B7
:100EA000184D6C7817E000BF05EBC4014868027864
:100EB000E2B1012A1FD000F0A5F8E878641C844252
:100EC00000D100240F48801CD0E84F1F491EC0E805
:100ED000421F002AF8D1A8780028E5D16C700A4892
:100EE000FFF714FFBDE8704000F0F4B8098989B23B
:100EF000FFF7D6FEE1E78968FFF76AFFDDE700004C
:100F00001000001018080010F0080010104A10B56A
:100F1000D368ABB113469B8A03E08CB12246A48A06
:100F20002344D4688B42F8D3C460D0600261C468A3
:100F300004B12061591A8182908A401A908210BDB2
:100F40000024C460D060C91A02619182848210BDFD
:100F50000809001030B502780023022A03D0012AC4
:100F600001D0032A00D101238C7800E010464268AA
:100F700012B19578A542F9D24A6041601BB102B125
:100F80009160886030BD0020FBE7000003494A689B
:100F9000426000228260486070470000F008001044
:100FA00010B5016900290ED0C268CA60C36800226A
:100FB0003BB18B8A848A23448B82C3681961C260E7
:100FC00000E08A82026110BD816839B142684A60DE
:100FD0004168002901D0806888607047054906E0B3
:100FE0004A68824202D14068486070471146002931
:100FF000F6D17047F0080010022202700022426011
:101000004180704710B5416879B1FFF77FFE044613
:10101000FFF7C6FF01206070032084F825002146F9
:10102000BDE810400348FFF795BF4188491C418047
:1010300010BD0000F008001010B5416889B1FFF73D
:1010400065FE0446032084F825002046FFF7A8FF2C
:101050002046FFF703FE05490020096881F82500B6
:1010600002E04188491C4180002010BD10000010A2
:1010700010B50C46418819B1491E4180002010BDB1
:1010800034B10A4A4368116823B1FFF763FF07E0F0
:10109000012010BD4160136800215960116888600B
:1010A00007212046FFF784FDF2E700001000001042
:1010B00006480068D0E90B10814203D30068044958
:1010C000884202D00120FFF7B8B870471000001026
:1010D000A52E5AE20749022248604270064A127859
:1010E000002A05D006C98A4202D0C078FFF736BD73
:1010F00070470000100000101C0000102DE9F047A0
:10110000164688468146FFF701FD002004463E4A08
:101110003E4902E042F82040401C0B889842F9D337
:101120003B48382201883B48FFF71DFB3A480088BE
:1011300080B240F00042394801683948FFF713FB9C
:1011400038480822018838480068FFF70CFB374F01
:10115000FF25374AFD703C8500213846FFF7EAFD40
:10116000344804210170446033480170C460046154
:101170008482F86A2030FEF7B3FF304831490760B7
:10118000022078702E48047044700978C170FFF70F
:1011900056F82D48016841F47F0101600068290676
:1011A00001EA00202849C0431439B0FA80F00968E8
:1011B000C0F10800C1F30221814200DB481C224932
:1011C000091F0B686FF08072824063F317020A6098
:1011D000FFF7CCFC1D49002808600CDB1C49455476
:1011E00000F01F020121914040114FF0E02202EB7C
:1011F0008000C0F80011324641464846BDE8F0473D
:10120000002300F067B800009C080010D414000010
:10121000F014000030000010D8140000F414000096
:10122000C8010010FA14000000000010B8080010F7
:1012300035020000F008001008090010100000102E
:1012400018080010F814000020ED00E02400001041
:1012500000E400E00C4810B50268012151700068FC
:10126000FFF794FEFEF7ECFF08480168491C016097
:10127000FFF7BAFC00F00EF80548FFF747FDBDE8A0
:101280001040FFF727BF00001000001018000010EA
:10129000F008001070B50D4C2068002815D0A0880B
:1012A0000B4E401EA0800AE0E888FEF7C5FFA88824
:1012B000A0802868206029463068FFF717FDA088C5
:1012C000002802D12568002DEED170BD2800001045
:1012D000000000102DE9F0411E46174680460C46DE
:1012E00011F0FF0F00D14C1C1A48FFF753FC05000A
:1012F0002DD0C4F30F202F632885E1B24246284643
:10130000EE61FFF717FD01241348144906E000BF02
:1013100000EB840252F8042C22B1641C0A88944227
:10132000F6D9002400EB8400E6B240F8045C0C48D7
:10133000EE70007818B101212846FFF7FFFB284620
:10134000FFF78CFC0748006880F825602046BDE860
:10135000F0810000300000109C080010D414000040
:101360001C000010100000102DE9F05F544DDFF854
:1013700048B1DFF848A129684FF000084FF005098F
:10138000012610B1CA7882423FD1474681F80180D8
:10139000FEF7A9FE2968C862FFF78AFE2868B046F2
:1013A000046A18E06068A8B12046FFF7AFFC064663
:1013B00080F82590FFF7F4FD86F80180314641481A
:1013C000FFF7C8FDA4F80280A660316AE1603462CC
:1013D000E46800E0E468002CE4D12868C2780AEBF5
:1013E000820141F8047C016B3748FFF77FFC2868D5
:1013F00007639BF8001011B10021FFF79FFB3348F2
:101400002968FFF773FC2F6051E031490988884251
:101410000ED80AEB800757F8045C4DB12846FFF759
:10142000D3FD2846FFF7BCFDCA46B1462C6A1BE037
:10143000FF20BDE8F09F6068A8B12046FFF766FC7A
:10144000064680F825A0FFF7ABFD86F801903146EF
:101450001C48FFF77FFDA4F80290A660316AE160A6
:101460003462E46800E0E468002CE4D147F8048CBE
:1014700044461548296BFFF739FC2C639BF80000A4
:1014800018B100212846FFF759FB29460F48FFF7FE
:101490002DFC0C4840688278094801688B789A4294
:1014A00008D981F8019001680648FFF753FD002034
:1014B000FFF7D4FB0020BCE71C0000109C080010C4
:1014C00010000010F0080010C801001030000010DB
:1014D000D414000007000000C8000001050000004F
:1014E0003F420F0000000000102700000000000035
:1014F00094010000500600001000000049000400A4
:10150000201500000000001030000000E402000080
:101510005015000030000010F00A000058070000CD
:1015200000000000000000000000000000000000BB
:1015300000000000000000000000000000000000AB
:10154000000000000000000000000000000000009B
:04000005000000CD2A
:00000001FF
